:1000000075310075340090000EE534253473800698
:10001000801E8036804E7580007401F5B012007F1E
:10002000230531A831B818F30534753100020009F1
:100030007580007480F5B012007F030531A831B8D7
:1000400018F3053475310002000975B0FF747FF5AF
:100050008012007F030531A831B818F305347531DB
:100060000002000975B0FF74FEF58012007F2305C1
:1000700031A831B818F37534007531000200097DDC
:0C0080000A7E147FF8DFFEDEFADDF622B7
:00000001FF
