:03000000020B9B55
:0C0B9B00787FE4F6D8FD758107020BE2BC
:1000030000000000000000000000000000000000ED
:1000130000000000000000000000000000000000DD
:1000230000000000000000000000000000000000CD
:1000330000000000000000000000000000000000BD
:100213000018003C003C0018001800000018000003
:10022300003600360000000000000000000000005F
:1002330000360036007F0036007F003600360000AF
:10024300000C003E0003001E0030001F000C0000E5
:100253000000006300330018000C00660063000018
:10026300001C0036001C006E003B0033006E0000D3
:10027300000600060003000000000000000000006C
:100283000018000C000600060006000C0018000011
:100293000006000C001800180018000C00060000EF
:1002A30000000066003C00FF003C00660000000008
:1002B3000000000C000C003F000C000C00000000CC
:1002C30000000000000000000000000C000C00060D
:1002D300000000000000003F0000000000000000DC
:1002E30000000000000000000000000C000C0000F3
:1002F300006000300018000C00060003000100003D
:10030300003E00630073007B006F0067003E000047
:10031300000C000E000C000C000C000C003F000051
:10032300001E00330030001C00060033003F0000B5
:10033300001E00330030001C00300033001E00009C
:100343000038003C00360033007F003000780000A6
:10035300003F0003001F003000300033001E000088
:10036300001C00060003001F00330033001E0000C2
:10037300003F003300300018000C000C000C00009C
:10038300001E00330033001E00330033001E000044
:10039300001E00330033003E00300018000E000042
:1003A3000000000C000C00000000000C000C00001A
:1003B3000000000C000C00000000000C000C000604
:1003C3000018000C000600030006000C00180000D3
:1003D30000000000003F00000000003F000000009C
:1003E3000006000C001800300018000C0006000086
:1003F300001E003300300018000C0000000C000049
:10040300003E0063007B007B007B0003001E0000B6
:10041300000C001E00330033003F003300330000A4
:10042300003F00660066003E00660066003F000075
:10043300003C00660003000300030066003C00006C
:10044300001F00360066006600660036001F0000CD
:10045300007F00460016001E00160046007F0000C5
:10046300007F00460016001E00160006000F000065
:10047300003C00660003000300730066007C00007C
:10048300003300330033003F0033003300330000F8
:10049300001E000C000C000C000C000C001E0000E1
:1004A300007800300030003000330033001E0000BD
:1004B300006700660036001E003600660067000015
:1004C300000F00060006000600460066007F0000DD
:1004D30000630077007F007F006B00630063000010
:1004E30000630067006F007B00730063006300001C
:1004F300001C00360063006300630036001C00002C
:10050300003F00660066003E00060006000F000084
:10051300001E003300330033003B001E0038000090
:10052300003F00660066003E00360066006700007C
:10053300001E00330007000E00380033001E0000C9
:10054300003F002D000C000C000C000C001E0000EE
:10055300003300330033003300330033003F000027
:1005630000330033003300330033001E000C00005F
:10057300006300630063006B007F0077006300008B
:10058300006300630036001C001C0036006300009B
:10059300003300330033001E000C000C001E00006B
:1005A300007F006300310018004C0066007F0000EC
:1005B300001E00060006000600060006001E0000DE
:1005C30000030006000C001800300060004000002B
:1005D300001E00180018001800180018001E000064
:1005E3000008001C0036006300000000000000004B
:1005F300000000000000000000000000000000FFF9
:10060300000C000C001800000000000000000000B7
:1006130000000000001E0030003E0033006E0000AA
:10062300000700060006003E00660066003B00006F
:1006330000000000001E003300030033001E000012
:10064300003800300030003E00330033006E0000FD
:1006530000000000001E0033003F0003001E0000E6
:10066300001C00360006000F00060006000F000005
:1006730000000000006E00330033003E0030001F16
:10068300000700060036006E006600660067000083
:10069300000C0000000E000C000C000C001E0000FB
:1006A3000030000000300030003000330033001E03
:1006B3000007000600660036001E003600670000D3
:1006C300000E000C000C000C000C000C001E0000BF
:1006D300000000000033007F007F006B0063000018
:1006E30000000000001F003300330033003300001C
:1006F30000000000001E003300330033001E000022
:1007030000000000003B00660066003E0006000F8C
:1007130000000000006E00330033003E003000781C
:1007230000000000003B006E00660006000F0000A2
:1007330000000000003E0003001E0030001F000008
:100743000008000C003E000C000C002C00180000F8
:10075300000000000033003300330033006E00005C
:1007630000000000003300330033001E000C0000C3
:10077300000000000063006B007F007F0036000074
:100783000000000000630036001C00360063000018
:1007930000000000003300330033003E0030001F30
:1007A30000000000003F0019000C0026003F00007D
:1007B3000038000C000C0007000C000C003800008F
:1007C3000018001800180000001800180018000096
:1007D3000007000C000C0038000C000C00070000A0
:1007E300006E003B0000000000000000000000005D
:1007F30000000000000000000000000000000000F6
:100C5F00500007000000000000000000000000002E
:100C6F00000000420017000148001B41424344317D
:030C7F003233000D
:100C8300EF1FAA0670011ED39400EA9400400BE400
:0A0C9300FDEDC3947D50E90D80F7DC
:010C9D002234
:100C2700E4FDFCAF0590002BE0FAA3E0AE02A807B5
:100C3700088005CEC313CE13D8F954017004C281BE
:100C47008002D281D280C2800DBD00010CED6410FC
:070C57004C70D0D282C28272
:010C5E002273
:10080300E4900029F07B017A00791B120C9E900082
:1008130019EEF0A3EFF0E4900023F0A3F090001999
:10082300E0FEA3E0FFC3900024E09FEE6480F89015
:100833000023E064809850DEE4900000F0A3F09081
:100843000017E0FCA3E0FD7E007F08120AF7C390C7
:100853000001E09FEE6480F8900000E0648098401F
:10086300030209F0E4900027F0A3F0900027E0FCD6
:10087300A3E0FDC39408EC6480948040030209590B
:10088300900023E0FEA3E0241BF58274003EF58371
:10089300E0FF900004F03395E0FEEFC4F8540FC876
:1008A30068FFEEC454F048FE74032FF58274003ED3
:1008B300F583ED25E0FDEC33FCE5822DF582E58340
:1008C3003CF583E493FF740193900005CFF0A3EF0D
:1008D300F0900017A3E0F9900000A3E089F0A4FFD3
:1008E300C3740F9FFF900005E0FEA3E0A8070880F4
:1008F30005C333CE33CED8F9FBAA0674072DF58290
:1009030074003CF583E0FEA3E0A801088005CEC394
:1009130013CE13D8F9FFEE4AFEEF4BAC06FD900061
:1009230028E025E0FF900027E033FE74072FF582CF
:1009330074003EF583C083C082ECFFEDD082D08388
:10094300CFF0A3EFF0900028E004F07006900027AA
:10095300E004F002086E900002E4F0A304F0E490D7
:100963000025F0A3F0900002E0FEA3E0FFC3900097
:1009730026E09F900025E09E5062E490002AF090CC
:10098300002AE0FFC394085043EF75F002A4240744
:10099300F9740035F0FA7B01782B7C007D017E0031
:1009A3007F02120AD1120C2790002AE0FF7401A8DB
:1009B30007088002C333D8FCF4900029F0F5B07F18
:1009C3000A7E00120C83A3E004F080B3900026E0BB
:1009D30004F07091900025E004F08089900001E01C
:1009E30004F07006900000E004F002084290002436
:0E09F300E004F07006900023E004F0020820FB
:100BA700020803E493A3F8E493A34003F68001F259
:100BB70008DFF48029E493A3F85407240CC8C3334F
:100BC700C4540F4420C8834004F456800146F6DF1E
:100BD700E4800B0102040810204080900C5FE47E43
:100BE700019360BCA3FF543F30E509541FFEE49313
:100BF700A360010ECF54C025E060A840B8E493A3DA
:100C0700FAE493A3F8E493A3C8C582C8CAC583CA04
:100C1700F0A3C8C582C8CAC583CADFE9DEE780BEBC
:010C82000071
:100A0100E709F608DFFA8046E709F208DFFA803ED7
:100A110088828C83E709F0A3DFFA8032E309F608C4
:100A2100DFFA8078E309F208DFFA807088828C832C
:100A3100E309F0A3DFFA806489828A83E0A3F608E0
:100A4100DFFA805889828A83E0A3F208DFFA804CBA
:100A510080D280FA80C680D4806980F28033801091
:100A610080A680EA809A80A880DA80E280CA8033FA
:100A710089828A83ECFAE493A3C8C582C8CCC58372
:100A8100CCF0A3C8C582C8CCC583CCDFE9DEE78042
:100A91000D89828A83E493A3F608DFF9ECFAA9F0C1
:100AA100EDFB2289828A83ECFAE0A3C8C582C8CC17
:100AB100C583CCF0A3C8C582C8CCC583CCDFEADE30
:100AC100E880DB89828A83E493A3F208DFF980CC92
:100AD10088F0EF60010E4E60C388F0ED2402B4048B
:100AE1000050B9F582EB2402B4040050AF23234532
:060AF1008223900A5173FC
:100AF700C2D5EC30E709B2D5E4C39DFDE49CFCEE1A
:100B070030E715B2D5E4C39FFFE49EFE120B46C340
:100B1700E49DFDE49CFC8003120B4630D507C3E43B
:060B27009FFFE49EFE2288
:100C9E00E4FFFE120B2D600C0FEF70010E09E970D0
:050CAE00F20A80EF22B4
:100B2D00BB010689828A83E0225002E722BBFE02C6
:090B3D00E32289828A83E49322F9
:100B4600BC000BBE0029EF8DF084FFADF022E4CC93
:100B5600F875F008EF2FFFEE33FEEC33FCEE9DEC5C
:100B6600984005FCEE9DFE0FD5F0E9E4CEFD22EDA2
:100B7600F8F5F0EE8420D21CFEADF075F008EF2FEC
:100B8600FFED33FD4007985006D5F0F222C398FDDD
:050B96000FD5F0EA227A
:00000001FF
