:03000000020A7D74
:0C0A7D00787FE4F6D8FD758107020AC4FA
:1000030000000000000000000000000000000000ED
:1000130000000000000000000000000000000000DD
:1000230000000000000000000000000000000000CD
:1000330000000000000000000000000000000000BD
:100213000018003C003C0018001800000018000003
:10022300003600360000000000000000000000005F
:1002330000360036007F0036007F003600360000AF
:10024300000C003E0003001E0030001F000C0000E5
:100253000000006300330018000C00660063000018
:10026300001C0036001C006E003B0033006E0000D3
:10027300000600060003000000000000000000006C
:100283000018000C000600060006000C0018000011
:100293000006000C001800180018000C00060000EF
:1002A30000000066003C00FF003C00660000000008
:1002B3000000000C000C003F000C000C00000000CC
:1002C30000000000000000000000000C000C00060D
:1002D300000000000000003F0000000000000000DC
:1002E30000000000000000000000000C000C0000F3
:1002F300006000300018000C00060003000100003D
:10030300003E00630073007B006F0067003E000047
:10031300000C000E000C000C000C000C003F000051
:10032300001E00330030001C00060033003F0000B5
:10033300001E00330030001C00300033001E00009C
:100343000038003C00360033007F003000780000A6
:10035300003F0003001F003000300033001E000088
:10036300001C00060003001F00330033001E0000C2
:10037300003F003300300018000C000C000C00009C
:10038300001E00330033001E00330033001E000044
:10039300001E00330033003E00300018000E000042
:1003A3000000000C000C00000000000C000C00001A
:1003B3000000000C000C00000000000C000C000604
:1003C3000018000C000600030006000C00180000D3
:1003D30000000000003F00000000003F000000009C
:1003E3000006000C001800300018000C0006000086
:1003F300001E003300300018000C0000000C000049
:10040300003E0063007B007B007B0003001E0000B6
:10041300000C001E00330033003F003300330000A4
:10042300003F00660066003E00660066003F000075
:10043300003C00660003000300030066003C00006C
:10044300001F00360066006600660036001F0000CD
:10045300007F00460016001E00160046007F0000C5
:10046300007F00460016001E00160006000F000065
:10047300003C00660003000300730066007C00007C
:10048300003300330033003F0033003300330000F8
:10049300001E000C000C000C000C000C001E0000E1
:1004A300007800300030003000330033001E0000BD
:1004B300006700660036001E003600660067000015
:1004C300000F00060006000600460066007F0000DD
:1004D30000630077007F007F006B00630063000010
:1004E30000630067006F007B00730063006300001C
:1004F300001C00360063006300630036001C00002C
:10050300003F00660066003E00060006000F000084
:10051300001E003300330033003B001E0038000090
:10052300003F00660066003E00360066006700007C
:10053300001E00330007000E00380033001E0000C9
:10054300003F002D000C000C000C000C001E0000EE
:10055300003300330033003300330033003F000027
:1005630000330033003300330033001E000C00005F
:10057300006300630063006B007F0077006300008B
:10058300006300630036001C001C0036006300009B
:10059300003300330033001E000C000C001E00006B
:1005A300007F006300310018004C0066007F0000EC
:1005B300001E00060006000600060006001E0000DE
:1005C30000030006000C001800300060004000002B
:1005D300001E00180018001800180018001E000064
:1005E3000008001C0036006300000000000000004B
:1005F300000000000000000000000000000000FFF9
:10060300000C000C001800000000000000000000B7
:1006130000000000001E0030003E0033006E0000AA
:10062300000700060006003E00660066003B00006F
:1006330000000000001E003300030033001E000012
:10064300003800300030003E00330033006E0000FD
:1006530000000000001E0033003F0003001E0000E6
:10066300001C00360006000F00060006000F000005
:1006730000000000006E00330033003E0030001F16
:10068300000700060036006E006600660067000083
:10069300000C0000000E000C000C000C001E0000FB
:1006A3000030000000300030003000330033001E03
:1006B3000007000600660036001E003600670000D3
:1006C300000E000C000C000C000C000C001E0000BF
:1006D300000000000033007F007F006B0063000018
:1006E30000000000001F003300330033003300001C
:1006F30000000000001E003300330033001E000022
:1007030000000000003B00660066003E0006000F8C
:1007130000000000006E00330033003E003000781C
:1007230000000000003B006E00660006000F0000A2
:1007330000000000003E0003001E0030001F000008
:100743000008000C003E000C000C002C00180000F8
:10075300000000000033003300330033006E00005C
:1007630000000000003300330033001E000C0000C3
:10077300000000000063006B007F007F0036000074
:100783000000000000630036001C00360063000018
:1007930000000000003300330033003E0030001F30
:1007A30000000000003F0019000C0026003F00007D
:1007B3000038000C000C0007000C000C003800008F
:1007C3000018001800180000001800180018000096
:1007D3000007000C000C0038000C000C00070000A0
:1007E300006E003B0000000000000000000000005D
:1007F30000000000000000000000000000000000F6
:100B4100500007000000000000000000000000004D
:100B5100000000420017000145001B4142432000F4
:100B6200EF1FAA0670011ED39400EA9400400BE422
:0A0B7200FDEDC3947D50E90D80F7FE
:010B7C002256
:040B0900AD07AC0682
:100B0D007F017E00E4FBFAEC5EF583ED5FF5824537
:100B1D00837004C2818002D281D280C280EF25E031
:100B2D00FFEE33FE0BBB00010AEB64104A70D8D206
:030B3D0082C282EF
:010B40002292
:10080300E4900026F07B017A00791B120B7D9000A7
:1008130019EEF0A3EFF0E4900020F0A3F09000199C
:10082300E0FEA3E0FFC3900021E09FEE6480F89018
:100833000020E064809850DEE4900000F0A3F09084
:100843000017E0FCA3E0FD7E007F081209D9C390E6
:100853000001E09FEE6480F8900000E0648098401F
:10086300030209C8E4900024F0A3F0900024E0FC04
:10087300A3E0FDC39408EC64809480400302094F15
:10088300900020E0FEA3E0241BF58274003EF58374
:10089300E0FF900004F03395E0FEEFC4F8540FC876
:1008A30068FFEEC454F048FE74032FF58274FE3ED5
:1008B300F583ED25E0FDEC33FCE5822DF582E58340
:1008C3003CF583E493FF740193900005CFF0A3EF0D
:1008D300F0900017A3E0F9900000A3E089F0A4FFD3
:1008E300C3740899C39FFF900005E0FEA3E0A80727
:1008F300088006CEA2E713CE13D8F8FBAA06740726
:100903002DF58274003CF583E0FEA3E0A801088086
:1009130005C333CE33CED8F9FFEE4AFCEF4BFD903F
:100923000025E025E0FF900024E033FE74072FF557
:100933008274003EF583ECF0A3EDF0900025E00413
:10094300F07006900024E004F002086E900002E4C8
:10095300F0A304F0E4900022F0A3F0900002E0FE84
:10096300A3E0FFC3900023E09F900022E09E504449
:10097300E4F9E925E02407F582E43400F583E0FE99
:10098300A3E0FF120B097401A801088002C333D846
:10099300FCF4900026F0F5B07F0A7E00120B62098A
:1009A300E9B408CE900023E004F070AF900022E099
:1009B30004F080A7900001E004F07006900000E0CE
:1009C30004F0020842900021E004F0700690002039
:0609D300E004F002082020
:100A8900020803E493A3F8E493A34003F68001F278
:100A990008DFF48029E493A3F85407240CC8C3336E
:100AA900C4540F4420C8834004F456800146F6DF3D
:100AB900E4800B0102040810204080900B41E47E81
:100AC900019360BCA3FF543F30E509541FFEE49332
:100AD900A360010ECF54C025E060A840B8E493A3F9
:100AE900FAE493A3F8E493A3C8C582C8CAC583CA24
:100AF900F0A3C8C582C8CAC583CADFE9DEE780BEDC
:010B61000093
:1009D900C2D5EC30E709B2D5E4C39DFDE49CFCEE39
:1009E90030E715B2D5E4C39FFFE49EFE120A28C37F
:1009F900E49DFDE49CFC8003120A2830D507C3E47A
:060A09009FFFE49EFE22A7
:100B7D00E4FFFE120A0F600C0FEF70010E09E97011
:050B8D00F20A80EF22D6
:100A0F00BB010689828A83E0225002E722BBFE02E5
:090A1F00E32289828A83E4932218
:100A2800BC000BBE0029EF8DF084FFADF022E4CCB2
:100A3800F875F008EF2FFFEE33FEEC33FCEE9DEC7B
:100A4800984005FCEE9DFE0FD5F0E9E4CEFD22EDC1
:100A5800F8F5F0EE8420D21CFEADF075F008EF2F0B
:100A6800FFED33FD4007985006D5F0F222C398FDFC
:050A78000FD5F0EA2299
:00000001FF
