:03000000020BDF11
:0C0BDF00787FE4F6D8FD758107020C2633
:1000030000000000000000000000000000000000ED
:1000130000000000000000000000000000000000DD
:1000230000000000000000000000000000000000CD
:1000330000000000000000000000000000000000BD
:100213000018003C003C0018001800000018000003
:10022300003600360000000000000000000000005F
:1002330000360036007F0036007F003600360000AF
:10024300000C003E0003001E0030001F000C0000E5
:100253000000006300330018000C00660063000018
:10026300001C0036001C006E003B0033006E0000D3
:10027300000600060003000000000000000000006C
:100283000018000C000600060006000C0018000011
:100293000006000C001800180018000C00060000EF
:1002A30000000066003C00FF003C00660000000008
:1002B3000000000C000C003F000C000C00000000CC
:1002C30000000000000000000000000C000C00060D
:1002D300000000000000003F0000000000000000DC
:1002E30000000000000000000000000C000C0000F3
:1002F300006000300018000C00060003000100003D
:10030300003E00630073007B006F0067003E000047
:10031300000C000E000C000C000C000C003F000051
:10032300001E00330030001C00060033003F0000B5
:10033300001E00330030001C00300033001E00009C
:100343000038003C00360033007F003000780000A6
:10035300003F0003001F003000300033001E000088
:10036300001C00060003001F00330033001E0000C2
:10037300003F003300300018000C000C000C00009C
:10038300001E00330033001E00330033001E000044
:10039300001E00330033003E00300018000E000042
:1003A3000000000C000C00000000000C000C00001A
:1003B3000000000C000C00000000000C000C000604
:1003C3000018000C000600030006000C00180000D3
:1003D30000000000003F00000000003F000000009C
:1003E3000006000C001800300018000C0006000086
:1003F300001E003300300018000C0000000C000049
:10040300003E0063007B007B007B0003001E0000B6
:10041300000C001E00330033003F003300330000A4
:10042300003F00660066003E00660066003F000075
:10043300003C00660003000300030066003C00006C
:10044300001F00360066006600660036001F0000CD
:10045300007F00460016001E00160046007F0000C5
:10046300007F00460016001E00160006000F000065
:10047300003C00660003000300730066007C00007C
:10048300003300330033003F0033003300330000F8
:10049300001E000C000C000C000C000C001E0000E1
:1004A300007800300030003000330033001E0000BD
:1004B300006700660036001E003600660067000015
:1004C300000F00060006000600460066007F0000DD
:1004D30000630077007F007F006B00630063000010
:1004E30000630067006F007B00730063006300001C
:1004F300001C00360063006300630036001C00002C
:10050300003F00660066003E00060006000F000084
:10051300001E003300330033003B001E0038000090
:10052300003F00660066003E00360066006700007C
:10053300001E00330007000E00380033001E0000C9
:10054300003F002D000C000C000C000C001E0000EE
:10055300003300330033003300330033003F000027
:1005630000330033003300330033001E000C00005F
:10057300006300630063006B007F0077006300008B
:10058300006300630036001C001C0036006300009B
:10059300003300330033001E000C000C001E00006B
:1005A300007F006300310018004C0066007F0000EC
:1005B300001E00060006000600060006001E0000DE
:1005C30000030006000C001800300060004000002B
:1005D300001E00180018001800180018001E000064
:1005E3000008001C0036006300000000000000004B
:1005F300000000000000000000000000000000FFF9
:10060300000C000C001800000000000000000000B7
:1006130000000000001E0030003E0033006E0000AA
:10062300000700060006003E00660066003B00006F
:1006330000000000001E003300030033001E000012
:10064300003800300030003E00330033006E0000FD
:1006530000000000001E0033003F0003001E0000E6
:10066300001C00360006000F00060006000F000005
:1006730000000000006E00330033003E0030001F16
:10068300000700060036006E006600660067000083
:10069300000C0000000E000C000C000C001E0000FB
:1006A3000030000000300030003000330033001E03
:1006B3000007000600660036001E003600670000D3
:1006C300000E000C000C000C000C000C001E0000BF
:1006D300000000000033007F007F006B0063000018
:1006E30000000000001F003300330033003300001C
:1006F30000000000001E003300330033001E000022
:1007030000000000003B00660066003E0006000F8C
:1007130000000000006E00330033003E003000781C
:1007230000000000003B006E00660006000F0000A2
:1007330000000000003E0003001E0030001F000008
:100743000008000C003E000C000C002C00180000F8
:10075300000000000033003300330033006E00005C
:1007630000000000003300330033001E000C0000C3
:10077300000000000063006B007F007F0036000074
:100783000000000000630036001C00360063000018
:1007930000000000003300330033003E0030001F30
:1007A30000000000003F0019000C0026003F00007D
:1007B3000038000C000C0007000C000C003800008F
:1007C3000018001800180000001800180018000096
:1007D3000007000C000C0038000C000C00070000A0
:1007E300006E003B0000000000000000000000005D
:1007F30000000000000000000000000000000000F6
:100CA00050000700000000000000000000000000ED
:100CB000000000420017000148001B41424344313C
:030CC000323300CC
:100CC400EF1FAA0670011ED39400EA9400400BE4BF
:0A0CD400FDEDC3947D50E90D80F79B
:010CDE0022F3
:100C6B00E4FDFCAF05900031E07E00A8070880058D
:100C7B00CEC313CE13D8F954017004C2918002D2A3
:100C8B0091D290C2900DBD00010CED64084C70D355
:040C9B00D292C2929D
:010C9F002232
:10080300E490002BF07B017A00791B120CDF90003F
:1008130019EEF0A3EFF0E4900023F0A3F090001999
:10082300E0FEA3E0FFC3900024E09FEE6480F89015
:100833000023E064809850DEE4900000F0A3F09081
:100843000017E0FCA3E0FD7E007F08120B2FC3908E
:100853000001E09FEE6480F8900000E0648098401F
:1008630003020A28E4900029F0A3F0900029E0FC99
:10087300A3E0FDC39408EC64809480400302096400
:10088300900023E0FEA3E0241BF58274003EF58371
:10089300E0FF900004F03395E0FEEFC4F8540FC876
:1008A30068FFEEC454F048FE74032FF58274003ED3
:1008B300F583ED25E0FFEC33FEE5822FF582E5833A
:1008C3003EF583E493FF740193900005CF8000F01D
:1008D300A3EFF0900017A3E0FD900000A3E08DF0DC
:1008E300A4FFC374079FFF900005E0FEA3E0A807E1
:1008F300088005C333CE33CED8F9FBAA0690002A6D
:10090300E025E0FF900029E033FE74072FF58274A1
:10091300003EF5837E00A3E0A805088005CEC3133F
:10092300CE13D8F9FFEF4BFD90002AE025E0FF90AE
:100933000029E033FE74072FF58274003EF583C06F
:1009430083C082E0FEEDFFD082D083EEF0A3EFF010
:1009530090002AE004F07006900029E004F00208F9
:100963006E900002E4F0A304F0E4900025F0A3F0FD
:10097300900002E0FEA3E0FFC3900026E09F9000FA
:1009830025E09E4003020A17E490002CF0E4900057
:1009930027F0A3F090002CE075F002A42407F9746B
:1009A3000035F0FA7B01900028E025E0FF90002756
:1009B300E033FEE92FF9EA3EFA78307C007D017ED0
:1009C300007F02120B09120C6BD2B0C2B07F017E02
:1009D30000120CC4900028E004F07006900027E099
:1009E30004F0C3900028E09401900027E064809411
:1009F3008040A1D2B1C2B190002CE004F0E0C394D6
:100A030008408A900026E004F07006900025E00478
:100A1300F0020973900001E004F07006900000E01A
:100A230004F0020842900024E004F07006900023D2
:060A3300E004F0020820BF
:100BEB00020803E493A3F8E493A34003F68001F215
:100BFB0008DFF48029E493A3F85407240CC8C3330B
:100C0B00C4540F4420C8834004F456800146F6DFD9
:100C1B00E4800B0102040810204080900CA0E47EBD
:100C2B00019360BCA3FF543F30E509541FFEE493CE
:100C3B00A360010ECF54C025E060A840B8E493A395
:100C4B00FAE493A3F8E493A3C8C582C8CAC583CAC0
:100C5B00F0A3C8C582C8CAC583CADFE9DEE780BE78
:010CC3000030
:100A3900E709F608DFFA8046E709F208DFFA803E9F
:100A490088828C83E709F0A3DFFA8032E309F6088C
:100A5900DFFA8078E309F208DFFA807088828C83F4
:100A6900E309F0A3DFFA806489828A83E0A3F608A8
:100A7900DFFA805889828A83E0A3F208DFFA804C82
:100A890080D280FA80C680D4806980F28033801059
:100A990080A680EA809A80A880DA80E280CA8033C2
:100AA90089828A83ECFAE493A3C8C582C8CCC5833A
:100AB900CCF0A3C8C582C8CCC583CCDFE9DEE7800A
:100AC9000D89828A83E493A3F608DFF9ECFAA9F089
:100AD900EDFB2289828A83ECFAE0A3C8C582C8CCDF
:100AE900C583CCF0A3C8C582C8CCC583CCDFEADEF8
:100AF900E880DB89828A83E493A3F208DFF980CC5A
:100B090088F0EF60010E4E60C388F0ED2402B40452
:100B19000050B9F582EB2402B4040050AF232345F9
:060B29008223900A89738B
:100B2F00C2D5EC30E709B2D5E4C39DFDE49CFCEEE1
:100B3F0030E715B2D5E4C39FFFE49EFE120B8AC3C4
:100B4F00E49DFDE49CFC8003120B8A30D507C3E4BF
:060B5F009FFFE49EFE2250
:0C0B6500A42582F582E5F03583F583229B
:100CDF00E4FFFE120B71600C0FEF70010E09E9704B
:050CEF00F20A80EF2273
:100B7100BB010689828A83E0225002E722BBFE0282
:090B8100E32289828A83E49322B5
:100B8A00BC000BBE0029EF8DF084FFADF022E4CC4F
:100B9A00F875F008EF2FFFEE33FEEC33FCEE9DEC18
:100BAA00984005FCEE9DFE0FD5F0E9E4CEFD22ED5E
:100BBA00F8F5F0EE8420D21CFEADF075F008EF2FA8
:100BCA00FFED33FD4007985006D5F0F222C398FD99
:050BDA000FD5F0EA2236
:00000001FF
